:020000040800F2
:10000000F005002001010008BB250008C718000802
:10001000B9250008850900085128000800000000E3
:10002000000000000000000000000000DF250008C4
:10003000E509000800000000DD250008E1250008B2
:100040001B0100081B0100081B0100081B01000820
:100050001B0100081B0100081B0100081B01000810
:100060001B0100081B0100081B0100081B01000800
:100070001B0100081B0100081B0100081B010008F0
:100080001B0100081B0100081B0100081B010008E0
:100090001B0100081B0100081B0100081B010008D0
:1000A0001B0100081B0100081B0100081B010008C0
:1000B0001B0100081B0100081B0100081B010008B0
:1000C0001B0100081B0100081B0100081B010008A0
:1000D0001B0100081B0100081B0100081B01000890
:1000E0001B0100081B0100081B010008DFF80CD0F1
:1000F00000F036FC00480047393E0008F0050020BB
:100100000648804706480047FEE7FEE7FEE7FEE7B1
:10011000FEE7FEE7FEE7FEE7FEE7FEE7352600081E
:10012000ED000008202A04DB203A21FA02F0002129
:10013000704721FA02F3D040C2F1200291400843F7
:1001400019467047D2B201E000F8012B491EFBD2DC
:1001500070470022F6E710B513460A4604461946D2
:10016000FFF7F0FF204610BDF0B480EA0102D40F83
:100170004200B2EB410F02D20246084611464A0045
:1001800042D0C30DDDB2C1F3C752AD1A202D35DA0E
:10019000C1F3160141F4000204B15242C5F1200638
:1001A00002FA06F12A411044B3EBD05F23D0C4B168
:1001B000012DA0EBC35009DCF0BC4FF0004202EA75
:1001C000C352DBB200F5000000F0A6BA400000F117
:1001D000807000EBC350A0F1807040EAD1704900FC
:1001E00009E0490841EAC071A0EBC35000F50000E6
:1001F000400800EBC350F0BC00F085BA6142012218
:1002000002EB4101001BF6E7F0BC704781F00041B2
:10021000AAE780F00040A7E780EA010210B502F0EB
:100220000043400022D04A001FD0010E01EB1261B2
:10023000C0F35600C2F3560240F4000042F400023C
:10024000A0FB022000047F39140400D0401C50EAB7
:10025000124001D44000491EC2B20C0604EBD0107B
:10026000401C4008802A02D003E0002010BD20F08E
:100270000100002900DA0020184310BD420005D01B
:10028000C0F3C7525242914201DC0020704700EB9C
:10029000C15070472DE9FE4F804681EA0300C00F30
:1002A0000C46009021F0004123F00045B8EB02001D
:1002B000A94105D24046214690461C460B460246BF
:1002C00023F00040104347D0270DC7F30A00C3F3C3
:1002D0000A510290401A019040286BDAC3F31300D0
:1002E00040F4801B0098924620B10023D2EB030A11
:1002F00063EB0B0B01985946C0F14002504600F0E9
:10030000E1F906460D4650465946019A00F0E9F9D2
:1003100010EB08006141002487EA115284EAE77378
:100320001A4340D0009A62B3019A012A4FEA075259
:1003300015DC001B61EB02014FF0004202EA07529C
:10034000CDE90042001C41F5801132462B4600F0F9
:1003500020FA03B0BDE8F08F40462146F9E7001BC4
:1003600061EB0201001C41F5801300185B4120186D
:10037000A2F5001747EB030140EAD570B6196D41AD
:1003800011E06D084FEA360645EAC0754FEA07529C
:10039000001B61EB0201001C41F5801149084FEA86
:1003A00030000019514132462B4603B0BDE8F04FF2
:1003B00000F0E0B90098012240000023D0EB0202D7
:1003C00063EBE073009821464FEAE074B8EB00005D
:1003D00061EB0401E9E783F000435BE781F0004152
:1003E00058E72DE9FE4F81EA030404F0004421F0B0
:1003F000004100944FF0000B23F0004350EA010449
:100400005ED052EA03045BD0C3F30A54C1F30A5529
:100410002C44A4F2F3340194A0FB0254C1F3130161
:1004200041F48011C3F3130343F4801301FB02442E
:1004300000FB034E840A970A44EA815447EA835733
:10044000A4FB076802958D0A05FB07854FEA932CEC
:1004500004FB0C542705029D4FEA065847EA16375D
:10046000B5EB08056EEB070C870E920E47EA811775
:1004700042EA8312A7FB0201B6EB0B0164EB000416
:100480002B0D43EA0C335E1844EB1C50DA46514600
:10049000E7FB0201C5F313044FEA0B3343EA14539D
:1004A0004FEA0432019C43EA0603A4F10C040294CF
:1004B000009CCDE900B400F06CF903B0BDE8F08F0A
:1004C00000200146F9E72DE9F04D81EA030404F02C
:1004D000004B21F0004514464FF0000A23F0004184
:1004E00050EA050220D054EA01021DD0C5F30A5794
:1004F0000246C5F31303C1F31300C1F30A5640F4D7
:10050000801543F48013A7EB0608101BD64608F2AB
:10051000FD3873EB050002D308F1010801E09218E1
:100520005B41B8F1000F03DA00200146BDE8F08D11
:1005300000204FF48011064684460EE0171B73EB33
:10054000050705D3121B63EB050306434CEA010CB8
:1005500049084FEA300092185B4150EA0107EDD19B
:1005600052EA030012D082EA040083EA050108433C
:1005700005D0101BAB4106D20122002306E0002269
:100580004FF0004302E06FF0010253101AEB060037
:100590004CEB085110EB0A0041EB0B01BDE8F04DAC
:1005A00000F0E8B8C10F80EAE0700844CA0796235B
:1005B000002100F0B1B80EB5C10F80EAE070084428
:1005C000CA07002140F233438DE80E000A460B466D
:1005D00000F0DFF803B000BD00F0004230F0004052
:1005E0000AD0C10D01F56071C0F3160042EA015155
:1005F000C20840071143704700200146704701F0D0
:10060000004330B421F0004150EA010206D00A0D47
:10061000A2F56072C1F31301002A02DC30BC002095
:100620007047440F44EAC104C100E01830BC00EB3D
:10063000C25000F068B830B50B46014600202022B9
:10064000012409E021FA02F59D4205D303FA02F5DF
:10065000491B04FA02F52844151EA2F10102F1DC3F
:1006600030BD2DE9F05F0546002092469B46884646
:100670000646814640241BE028464146474622461E
:10068000FFF750FD53465A46C01A914110D3114608
:100690001846224600F016F82D1A67EB01084F465F
:1006A00022460120002100F00DF817EB00094E4111
:1006B000201EA4F10104DFDC484631462A464346A9
:1006C000BDE8F09F202A04DB203A00FA02F1002066
:1006D00070479140C2F1200320FA03F31943904080
:1006E0007047202A06DBCB17203A41FA02F043EA92
:1006F000E07306E041FA02F3D040C2F120029140DB
:100700000843194670470029A8BF7047401C49009C
:1007100008BF20F00100704710B4B0FA80FC00FA66
:100720000CF050EA010404BF10BC704749B1CCF191
:10073000200421FA04F411FA0CF118BF012121431D
:100740000843A3EB0C01CB1D4FEA00614FEA1020D8
:1007500042BF002010BC704700EBC350104400297A
:10076000A4BF10BC7047401C490008BF20F0010026
:1007700010BC704710B5141E73F1000408DA401C59
:1007800041F1000192185B411A4301D120F00100B0
:1007900010BD2DE9F04D92469B4611B1B1FA81F2A0
:1007A00002E0B0FA80F220329046FFF78BFF044659
:1007B0000F4640EA0A0041EA0B0153465A460843F5
:1007C00013D0114653EA010019D0C8F14002504637
:1007D000FFF7A8FC05460E46504659464246FFF72D
:1007E00071FF084305D0012004E020463946BDE8EA
:1007F000F08D0020054346EAE0762C4337430A9803
:100800006305E40AA0EB08000022FD0A44EA47540D
:100810000A3002D500200146E9E7010510196941B7
:10082000DDE9084500196941BDE8F04DA2E770B562
:1008300021F0004303430CD0C1F30A550024D5EB4B
:10084000040564EB0403D617AD1AB34102DB0020A4
:10085000014670BD201841EB025170BD2DE9F04DED
:1008600000231A461B1A8A4103DB00200146BDE81B
:10087000F08DC1F30A52C1F3130141F480154FF01A
:10088000000BD10702D100186D41521E002704460B
:1008900040F2FF11384601EB620A3E4680460246AE
:1008A00000204FF48011FFF73DFCC2197141BB18C5
:1008B00046EB0100B4EB030C75EB000C04D3E41A17
:1008C00065EB000517460E46241908F101006D413D
:1008D00080463428E3DDF91946EB0600091BA841E0
:1008E00003D24FF0FF32134601E0002213461BEB08
:1008F000070046EB0A51BDE8F04DFFF73BBFC1F3DF
:100900000A52C1F3130140F2FF3341F480119A42BD
:1009100002DA00200146704740F233439A42A2F2C5
:10092000334202DC5242FFF7FDBBFFF7CBBE0000B3
:1009300030B5041E71F1000404DB4FF00044404266
:1009400064EB0101141E73F1000405DB1C464FF03B
:100950000043524263EB0403994208BF904230BD0A
:10096000064C074D06E0E06840F0010394E80700FC
:1009700098471034AC42F6D3FFF7BCFB7C4100082B
:100980009C410008FEE700001FB510238DF80C0005
:10099000012203A98DE80E0013460246044801888F
:1009A000044800F0B7F99DF80C0004B010BD000039
:1009B00000000020580100201FB5002203928DF88E
:1009C0000C101023012203A98DE80E0013460246E5
:1009D00002480188024800F0ADFA1FBD0000002067
:1009E000580100207047704770B5044600F0ECF8DD
:1009F0000546601C02D004480078044400F0E4F886
:100A0000401BA042FAD370BD900000202DE9F84FA2
:100A1000DFF890A100220AF1040B144601274FF0E1
:100A20000F090BF1040E00BF0B6807FA04F52B4009
:100A3000AB4274D1DFF870C14E68A6EB0C08664576
:100A40002BD00DDC032E34D005DC36B3012E19D0AB
:100A5000022E2FD11BE0112E16D0122E2AD119E012
:100A6000B8F5881F19D006DCB8F5803F15D0B8F569
:100A7000801F1FD111E0B8F5001F0ED0B8F5041F7C
:100A800018D10AE0CA6815E0CA68121D12E0CA68E7
:100A900008320FE0CA680C320CE08A682AB1012AD9
:100AA0004FF0080203D0456104E0042202E0056132
:100AB00000E00022FF2B01D8064601E000F1040609
:100AC0004FEA840501D9A5F12005D6F800C009FA3E
:100AD00005F82CEA080C02FA05F54CEA050CC6F8F4
:100AE00000C04D68ED0057D5304DAE6946F00106A7
:100AF000AE61AD6924F0030605F0010500952C4DAB
:100B000006EB050CDCF80850A6074FEA167809FA40
:100B100008F6B543274EB04202D1002610E03BE074
:100B2000254EB04201D101260AE0244EB04201D147
:100B3000022605E0224EB04201D1032600E0042641
:100B400006FA08F62E43CCF808604D68DAF8006023
:100B5000ED03554601D51E4300E09E432E604D68CF
:100B6000DBF80060AD035D4601D51E4300E09E4307
:100B70002E604D68DEF80060ED02754601D51E431B
:100B800000E09E432E604D68AD020E4D2E6801D5EB
:100B90001E4300E09E432E60641C102CFFF444AF03
:100BA000BDE8F88F00040140000011100010024061
:100BB0000000014000080140000C0140001001400D
:100BC000001401400C040140014880687047000097
:100BD0009000002070B504001BD094F83D00002563
:100BE00020B984F83C50204600F042FA242084F8D2
:100BF0003D002068016821F00101016000F0B0FBB8
:100C0000404A6168914201D83F4900E03F4988422B
:100C100001D2012070BD3E492368B0FBF1F159605B
:100C20006368934206D94FF4967359434FF47A732D
:100C3000B1FBF3F12368491C19626168914210D835
:100C40004900401EB0FBF1F2521CC2F30B02042A11
:100C500001D2042022E0B0FBF1F0401CC0F30B00F5
:100C60001CE0A368CBB301EBC10202EB0116421EEC
:100C7000B2FBF6F2521C42F48042120536D06BB33E
:100C800001EBC10202EB0111401EB0FBF1F0401C70
:100C9000C0F30B0040F4804040F400402168C8617C
:100CA000D4E90701084321680860D4E90310084328
:100CB00021688860D4E9050108432168C86020687C
:100CC000016841F0010101602564202084F83D00A5
:100CD000256384F83E50002070BD00E008E001EB81
:100CE0004106421EB2FBF6F2521CC6E70120D5E7D0
:100CF00001EB4101401EB0FBF1F0401CC0F30B00C2
:100D0000CAE70000A086010080841E0000093D00A3
:100D100040420F002DE9FF4F83B09A46DDE911876D
:100D200093460446DDF84090FFF74EFF054694F8E1
:100D30003D00202872D1192301227B4920460095CD
:100D400000F0C5FE0028F5D194F83C00012865D0DC
:100D5000012084F83C0020680168C90703D10168BC
:100D600041F0010101602068016821F40061016027
:100D7000222084F83D00402084F83E0000262664AE
:100D8000C4F82490A4F82A806848E062608D208529
:100D9000CDE9007553465A462046049900F0A8FD57
:100DA00028B1206C84F83C60042851D075E0208D77
:100DB000DFF87C8168B1012814D00228206801681E
:100DC0001ED041F480610160206841698069009013
:100DD0009BE02068416981690091016841F40071DC
:100DE000016092E02068016821F48061016072B6C0
:100DF0002068416981690091016841F400710AE04D
:100E000041F40061016072B6206841698169009116
:100E1000016821F48061016062B676E081E0032818
:100E200050D801280BD002283B464FF00002414623
:100E30002046009512D000F04AFE70BB13E02A460F
:100E40003946204600F0B8FE30B1206C202824D06E
:100E5000012007B0BDE8F08F20684BE000F037FEBE
:100E6000D8B972B61BE02068016821F48061016086
:100E700072B620680169606A421C62620170208D4E
:100E8000401E2085608D401E60853B460022414605
:100E90002046009500F01BFE08B10320D9E720682A
:100EA000016841F40071016020680169606A421CB8
:100EB00062620170208D401E2085608D401E60851D
:100EC00062B6C9E72A463946204600F075FE00287A
:100ED000BBD120680169606A421C62620170208D8A
:100EE000401E2085608D401E608520684169C94391
:100EF00049070AD40169606A421C62620170208D50
:100F0000401E2085608D401E6085208D002886D182
:100F1000202084F83D0084F83E6084F83C60002086
:100F200097E7022095E70000020010000000FFFF95
:100F3000040001002DE9FF4F83B09A46DDE91187D7
:100F400093460446DDF84090FFF73EFE064694F8CF
:100F50003D0020287DD119230122434920460096D7
:100F600000F0B5FD00287CD194F83C00012878D031
:100F7000012084F83C0020680168C90703D101689A
:100F800041F0010101602068016821F40061016005
:100F9000212084F83D00402084F83E00002525648F
:100FA000C4F82490A4F82A803048E062608D20853F
:100FB000CDE9007653465A462046049900F010FDCC
:100FC00080B3206C84F83C50042848D008E03246B6
:100FD0003946204600F021FE30B1206C042839D07B
:100FE000032007B0BDE8F08F606A411C6162216890
:100FF00000780861208D401E80B22085618D491ED9
:10100000618521684A69D24352070BD468B1606A8E
:10101000421C626200780861208D401E2085608D30
:10102000401E6085208D0028D1D1324639462046A9
:1010300000F026FD0028D0D154F83D0B016841F4A2
:1010400000710160202004F81E09E5776577002013
:10105000C7E706E02068016841F4007101600120E3
:10106000BFE70220BDE70000020010000000FFFF04
:1010700010B586B0002100910191029103910068A2
:101080001349884222D1134CA06940F00800A061A6
:10109000A069694600F0080004904FF44070009089
:1010A00012200190032003900B48FFF7AFFC0B4880
:1010B000416841F0E06141F002014160E06940F4C3
:1010C0000010E061E06900F40010049006B010BD6B
:1010D0000054004000100240000C0140000001409C
:1010E00002488168027811448160704790000020B6
:1010F000074810B5016841F010010160032000F0BD
:1011000067F8002000F006F800F024F8002010BD79
:101110000020024070B50D4D04464FF47A712878D6
:10112000B1FBF0F00A490968B1FBF0F000F0F0FA09
:1011300048B9102C07D200222146501E00F028F892
:1011400000206C6070BD012070BD00009000002088
:101150009C0000200C4808B5816941F001018161C3
:10116000816901F001010091C16941F08051C161C3
:10117000C06900F0805000900448416821F0E061AF
:1011800041F00071416008BD0010024000000140C4
:10119000F0B40E4B1B680C46C3F30223C3F10705E2
:1011A000042D00D90425191D072901D2002300E0D0
:1011B000DB1E012606FA05F1491E214099409E409A
:1011C000761E16403143F0BC01F0F8B90CED00E09A
:1011D000064900F0070208684FF6FF03184040EA8E
:1011E0000220034A10430860704700000CED00E045
:1011F0000000FA052DE9F047DFF8548105460E4658
:10120000D8F8000000F00700B0420CD2D8F8001067
:1012100021F007013143C8F80010D8F8000000F0B1
:101220000700B0426FD128684A4C810712D54007A9
:1012300003D5606840F4E06060602878000703D55B
:10124000606840F4605060606068A96820F0F00059
:10125000084360602878C00744D06868012816D029
:101260002168022816D0890700294CDA616821F02C
:10127000030101436160FFF7A7FC6968074641F27B
:10128000883001290ED00229814618D026E0216835
:101290008903E9E78901E7E7FFF796FCC11B4945A8
:1012A00001D918E081466068C0F381000128F3D1BC
:1012B00018E000BFFFF788FCC11B49450BD86068E8
:1012C000C0F381000228F5D10CE000BFFFF77CFCE1
:1012D000C11B494502D90320BDE8F087606810F0C2
:1012E0000C0FF3D1D8F80010404601F00701B142CD
:1012F0000BD9016821F0070131430160006800F05B
:101300000700B04201D00120E6E72878400705D564
:101310006068E96820F4E0600843606028780007AE
:1013200006D56068296920F4605040EAC100606019
:1013300000F036F86168084AC1F30311515CC840F7
:10134000064908600020FFF7E5FE0020C4E7000022
:1013500000200240001002400C4000089C000020C9
:101360000448054900684968044AC1F30221515CF8
:10137000C84070479C000020001002401C4000083C
:101380000448054900684968044AC1F3C221515C18
:10139000C84070479C000020001002401C4000081C
:1013A00012A185B00FC98DE80F0014A0144A00687F
:1013B00004905168134801F00C03042B10D0082B43
:1013C0000ED1C1F38343C9031DF803000AD5516848
:1013D00004AAC1F34041515C0A4A5043B0FBF1F00A
:1013E00005B0704708494843FAE7000002030405C6
:1013F000060708090A0B0C0D0E0F10100102000061
:101400000010024000127A0000093D002DE9F84F5B
:1014100004460078B94DC00748D06868C0F3810021
:10142000012807D06868C0F38100022809D16868E4
:10143000C00306D52868800338D5606800286FD0BF
:1014400034E06068B0F5803F0BD010B1B0F5A02F4C
:1014500011D0286820F480302860286820F480208B
:1014600002E0286840F480302860606888B1FFF7A7
:10147000ABFB064609E0286840F480202860F0E7CE
:10148000FFF7A2FB801B642875D828688003F7D576
:101490000CE0FFF799FB064605E000BFFFF794FB61
:1014A000801B6428F0D828688003F7D42078944EF5
:1014B00080074FF001094FF000083BD5686810F035
:1014C0000C0F07D06868C0F38100022809D1686852
:1014D000C00306D42868800714D5206901281FD1CD
:1014E00010E02069B0B1C6F80090FFF76DFB074629
:1014F00005E000BFFFF768FBC01B0228C4D82868BE
:101500008007F7D52868616920F0F80040EAC1003B
:1015100028600FE0C6F80080FFF756FB074606E09C
:10152000E9E000BFFFF750FBC01B022823D8286862
:101530008007F7D4207800072CD57248A169D9B16B
:10154000C0F80090FFF740FB074604E0FFF73CFBC4
:10155000C01B02280FD8686A8007F7D56A484FF485
:10156000FA510068B0FBF1F0009000BF0098411EF6
:101570000091FAD20EE080E0C0F80080FFF724FB73
:10158000074604E0FFF720FBC01B022875D8686AF5
:101590008007F7D42078400760D5E8690027C000AD
:1015A00008D4E86940F08050E861E869012700F05C
:1015B0008050009055480168C90513D401688346DE
:1015C00041F480710160FFF7FFFA824606E000BF38
:1015D000FFF7FAFAA0EB0A0064284ED8DBF8000007
:1015E000C005F5D5E06801280AD008B1052813D058
:1015F000286A20F001002862286A20F0040002E036
:10160000286A40F001002862E06841F2883B98B106
:10161000FFF7DAFA82460BE0286A40F004002862FD
:10162000EEE700BFFFF7D0FAA0EB0A0159455AD800
:10163000286A8007F6D50CE0FFF7C6FA824605E077
:10164000FFF7C2FAA0EB0A0159454CD8286A800777
:10165000F6D41FB1E86920F08050E861E06988B3F2
:101660006968C1F38101022945D00228C6F860806B
:1016700004D0FFF7A9FA044638E034E0FFF7A4FAF3
:10168000074604E0FFF7A0FAC01B02282BD8286801
:101690008001F7D4206AB0F5803F05D16868A16861
:1016A00020F4003008436860D4E908010843696801
:1016B00021F4741108436860C6F86090FFF784FA5B
:1016C000044606E015E000BFFFF77EFA001B022883
:1016D00009D828688001F7D50BE000BFFFF774FA3E
:1016E000001B022802D90320BDE8F88F286880017A
:1016F000F4D40020F8E70120F6E7000000100240D3
:1017000000004242800442429C00002000700040E1
:1017100010B5401EB0F1807F01D3012010BD4FF005
:10172000E02460610F21601700F048FF0020A061F5
:1017300007202061002010BD70B5040004D094F88B
:101740003900002510B106E0012070BD84F8385042
:10175000204600F023F8242084F839002068C1686E
:1017600021F40051C160204600F088FF2068016923
:1017700021F4904101612068416921F02A01416111
:101780002068C16841F40051C160E563202084F8FD
:10179000390084F83A00002070BD000030B585B0F3
:1017A0000024009401940294039400681449884230
:1017B00023D11448C16941F40031C161C16901F408
:1017C00000310491816941F00401816180690E4D0D
:1017D00000F00400049004200090022001900320F7
:1017E000039069462846FFF711F90820CDE9000467
:1017F000694628460294FFF709F905B030BD00009C
:101800000044004000100240000801402DE9F84368
:10181000044690F839001F4616460D46202850D140
:10182000A5B19EB194F8380001284AD0012084F86F
:1018300038004FF00008C4F83C80212084F83900BB
:10184000FFF7C2F9A6848146E68426E00120BDE8C0
:10185000F883E08C401EE084A0684B46B0F5805FC2
:101860004FF000024FF080012046009703D000F0B7
:10187000BDFFE8B90DE000F0B9FFC8B928882168BC
:10188000C0F308004860206908B16D1C05E0AD1C7C
:1018900003E0216815F8010B4860E08C0028D8D1DE
:1018A0004B46002240212046009700F09FFF08B1E0
:1018B0000320CCE7202084F8390084F83880002009
:1018C000C5E70220C3E7FEE701684A69D243520533
:1018D0000CD46FF480624A6104210164002140F855
:1018E000301F20224273017301207047002070478F
:1018F0002DE9F84F0446006889460B9D016898461B
:10190000174641F4806101602068016841F48071EC
:10191000016000954FF0011A0022514620460A9BB3
:1019200000F0D5F8F0BB216809F0FE0008610AF16B
:10193000010B2B46594620460A9A00F0F9F818B1D7
:10194000206C042812D03AE0206841698069009038
:101950002A4620460A9900F060F950B1206C04280C
:101960002DD12068016841F4007101600120BDE8BB
:10197000F88FFEB2B8F1010F09D02168380A08616A
:101980002A4620460A9900F048F90028E6D1206846
:1019900006612A4620460A9900F03FF90028DDD169
:1019A000206800E00BE0016841F48071016000955F
:1019B0000022514620460A9B00F089F808B1032016
:1019C000D5E7216809F0FF0040F0010008612B46CF
:1019D000594620460A9A00F0ABF80028B0D1C6E775
:1019E0002DE9F843044600680D46DDE908970168D3
:1019F0009846164641F4807101604B4600224FF034
:101A000001112046009700F062F8E8B9216805F05E
:101A1000FE0008613B464A461849204600F088F817
:101A200028B1206C04280FD10120BDE8F88320687C
:101A30004169806900903A464946204600F0EDF839
:101A400020B1206C042813D00320EEE7F5B2B8F1E2
:101A5000010F09D02168300A08613A4649462046FC
:101A600000F0DBF80028ECD1206805610020DCE7FD
:101A70002068016841F400710160D5E702000100AF
:101A800070B516460D4604461AE02046FFF71CFFC7
:101A900008B1012070BD681C12D025B1FFF794F881
:101AA000801BA8420CD954F8400F40F0200044F8A5
:101AB000100900202060202161732073032070BD75
:101AC00020684069C0434007DFD4002070BD2DE985
:101AD000F0471E4690460D460446C1F30747DDF821
:101AE000209012E0701C10D02EB1FFF76DF8A0EB23
:101AF0000900B04209D9002044F8300F2021617359
:101B0000A07320730320BDE8F0872068012F0AD05E
:101B1000806925EA00000004000C06D00021414540
:101B2000E0D00020EFE74069F3E70121F7E700008C
:101B30002DE9F0479A4691460D46044600264FF09F
:101B40002008C1F307472AE020684069C0434005E8
:101B500012D42068016841F40071016021686FF4BB
:101B60008060486104202064266384F83D8084F806
:101B70003C600120BDE8F087B9F1FF3F0FD0B9F11B
:101B8000000F05D0FFF720F8A0EB0A01494506D960
:101B900044F8306F84F80D8026730320EAE720684C
:101BA000012F07D0D0F8180025EA00000004000C2F
:101BB000E0D0C9E74069F7E72DE9F04100259046FC
:101BC0000E460446202721E04069C043C0060CD4DD
:101BD00021686FF0100048612564256384F83D702A
:101BE00084F83C500120BDE8F0812EB1FEF7ECFFF7
:101BF000A0EB0800B04209D954F8400F40F0200093
:101C000044F80409677025700320ECE720684169F7
:101C1000C9434906D8D40020E5E770B516460D46FD
:101C200004461AE02046FFF74FFE08B1012070BDC0
:101C3000681C12D025B1FEF7C7FF801BA8420CD943
:101C400054F8400F40F0200044F8100900202060B4
:101C5000202161732073032070BD20684069C04358
:101C60000006DFD4002070BD2DE9FF4F99B00020A1
:101C7000DDE929A5DDE92796DDF898800590049037
:101C80000390FF4CFD48009021682068FEF7C4FADD
:101C90000E9061682068FEF7BFFAA168834620684D
:101CA000FEF7BAFA0C90E1682068FEF7B5FA0B90DF
:101CB00061686068FEF7B0FA0790A1686068FEF797
:101CC000ABFA0A90E1686068FEF7A6FA0990A1688D
:101CD000A068FEF7A1FA0290E168A068FEF79CFAFE
:101CE0000890E168E068FEF797FA494601900846D7
:101CF000FEF792FA044641460846FEF78DFA1C9913
:101D000007460846FEF788FA3946FEF72DFA2146BF
:101D1000FEF72AFA01F054FE044601461C98FEF72D
:101D20007BFA1C9021464046FEF776FA2690214623
:101D30004846FEF771FA294627900846FEF76CFAE6
:101D4000074651460846FEF767FA044631460846FC
:101D5000FEF762FA2146FEF707FA3946FEF704FA63
:101D600001F02EFE044601463046FEF755FA289053
:101D700021465046FEF750FA299021462846FEF7A4
:101D80004BFA2A900C990998FEF7EEF90446129046
:101D900001212A98FEF772FA80462146FEF73CFAA6
:101DA0000546DDE90A01FEF731FA044613900121E8
:101DB0002998FEF763FA82462146FEF72DFA064679
:101DC0004FF07C5738460299FEF720FA0199FEF74A
:101DD0001DFA044601212898FEF750FA8146214653
:101DE000FEF71AFA3146FEF7BFF92946FEF7BCF9AD
:101DF000064659460898FEF709FA01464046FEF79E
:101E00000BFA044638460799FEF700FA074601998F
:101E1000FEF7FCF901465046FEF7FEF90546DDE9FE
:101E20000A01FEF7A1F901464846FEF7F5F92946F1
:101E3000FEF79AF92146FEF797F9054638460299CA
:101E4000FEF7E4F901464046FEF7E6F90746594633
:101E50000898FEF789F9014610905046FEF7DCF924
:101E600004460C990998FEF7D1F980464146484648
:101E7000FEF7D2F92146FEF777F93946FEF774F9F5
:101E8000074629460846FEF7C7F904463146084684
:101E9000FEF7C2F92146FEF767F9FEF79DFB02F057
:101EA0008FF8FEF7ACFB81463C4640460121FEF729
:101EB000E5F9834601211098FEF7E0F90D900799A6
:101EC0000E98FEF7A3F90299FEF7A0F90199FEF723
:101ED0004BF98246454601212046FEF7CFF92946B7
:101EE0001190FEF799F9FEF777FB074688460198AF
:101EF000FEF772FB05460E460298FEF76DFB0446A0
:101F00000022604B0291FEF769FA2A463346FEF73B
:101F100062FA06460D4601214846FEF7AFF98146B2
:101F2000FEF75AFB32462B46FEF75BFA3A4643462B
:101F3000FEF7B0F9FEF763FB0646DDE91010FEF789
:101F40006BF9054648461399FEF766F92946FEF7F0
:101F50000BF90299054627460C460798FEF73CFB0D
:101F60000022484BFEF73AFA3A462346FEF733FA88
:101F700007460C461198FEF72FFB3A462346FEF71C
:101F800030FA0C46074648461299FEF745F9FEF727
:101F900023FB3A462346FEF77DF9FEF730FB074662
:101FA00029462A98FEF738F9044639462998FEF75B
:101FB00033F92146FEF72AF904460D992798FEF7D2
:101FC0002BF9804651462698FEF726F94146FEF742
:101FD0001DF92146FEF7C8F8814639462898FEF7D4
:101FE0001BF9044631462A98FEF716F92146FEF7FA
:101FF0000DF9044651461C98FEF70EF9074659465E
:102000002798FEF709F93946FEF700F92146FEF751
:10201000ABF8044631462998FEF7FEF806462946F5
:102020002898FEF7F9F83146FEF7F0F805465946CC
:102030002698FEF7F1F806460D991C98FEF7ECF885
:102040003146FEF7E3F82946FEF78EF8054619F00B
:10205000FF4F47D014F0FF4F44D015F0FF4F41D051
:1020600048460099FEF7D8F80599FEF77DF8064630
:1020700020460099FEF7D0F8049905E0A69BC43CE1
:102080000C0000200000E03FFEF76EF807462846EF
:102090000099FEF7C1F80399FEF766F8DFF890A102
:1020A000804651464846FEF7B7F81999FEF75CF8A6
:1020B0003146FEF759F8199051462046FEF7ACF824
:1020C0001A99FEF751F83946FEF74EF81A90514624
:1020D0002846FEF7A1F81B99FEF746F84146FEF7A1
:1020E00043F81B90534C1B99E068FEF795F80546A2
:1020F0001A99A068FEF790F806466068199980F072
:102100000040FEF789F83146FEF780F82946FEF7D1
:102110007DF80099FEF780F82168FEF725F8206029
:102120001A99E068FEF778F806461B99A068FEF752
:1021300073F8216805461998FEF76EF82946FEF7F0
:1021400013F83146FEF762F80099FEF765F861680A
:10215000FEF70AF86060E1681998FEF75DF8064638
:102160001B996068FEF758F805461A992068FEF733
:1021700053F82946FEF74AF83146FDF7F5FF009976
:10218000FEF74AF8A168FDF7EFFFA060A168199873
:10219000FEF742F806461A996068FEF73DF80546D4
:1021A0001B992068FEF738F82946FDF7DDFF314618
:1021B000FEF72CF80099FEF72FF8E168FDF7D4FF41
:1021C000E060E168E068FEF727F8A1680746A068CC
:1021D000FEF722F8616805466068FEF71DF8216881
:1021E00006462068FEF718F83146FDF7BDFF294680
:1021F000FDF7BAFF3946FDF7B7FF01F0E1FB0546F1
:1022000001462068FEF708F8206029466068FEF75E
:1022100003F860602946A068FDF7FEFFA06029462C
:10222000E068FDF7F9FFE0601DB0BDE8F08F000049
:10223000000090400C0000202DE9F04F8DB007A960
:102240000A1D07A8811C01F015FB05A90A1D05A898
:10225000811C01F027FB09A90A1D09A8811C01F0B6
:1022600097FB4A4ABDF914104A4B1180BDF916007C
:1022700050800646BDF918009080454A0746BDF9D2
:102280001C0010800090BDF91E0050808346BDF9EF
:10229000200090808246BDF824001A88801A3E4AA9
:1022A00000B281461080BDF826005C88001B00B299
:1022B00050808046BDF828009B88C01A04B29480E4
:1022C0000846FEF778F94FF06632344BFEF7FBF81C
:1022D000FEF795F905463046FEF76DF94FF0663288
:1022E0002E4BFEF7F0F8FEF78AF906463846FEF761
:1022F00062F94FF06632294BFEF7E5F8FEF77FF9F9
:1023000007460098FEF74EF90B905846FEF74AF93B
:1023100000905046FEF746F901904846FEF742F914
:1023200081464046FEF73EF982462046FEF73AF9DE
:1023300083463846FEF750F9194FDFF868803A4671
:102340004346FEF74EF8FEF75AF904463046FEF7CC
:1023500043F93A464346FEF744F8FEF750F906467D
:102360002846FEF739F93A464346FEF73AF8FEF7B3
:1023700046F9054602A8224680E8000E3146284666
:102380000B9BFFF771FC0DB0BDE8F08F88000020BB
:10239000820000201C0000207C0000206666404077
:1023A000EC51B81E85EB913F2DE9F05F0546FFF734
:1023B00043FF4B4C01212068FDF760FFA168FDF74A
:1023C0002BFF06464FF0404A51466068FDF724FF58
:1023D000E168FDF721FF3146FDF7C6FEFEF7FCF888
:1023E00000F034FF4FF0663B5A463E4BFDF7F9FFD5
:1023F000FEF705F968600121A068FDF73FFFA168BD
:10240000FDF70AFF064651466068FDF705FF616863
:10241000FDF702FF3146FDF7F9FE4FF07E594946C0
:10242000FDF7A2FEFEF7D8F807460E460121206808
:10243000FDF724FF6168FDF7EFFE80460121A068EB
:10244000FDF71CFFE168FDF7E7FE4146FDF78CFE56
:10245000FEF7C2F83A46334601F040F95A46214B9E
:10246000FDF7BFFFFEF7CBF8A8600121E068FDF79C
:1024700005FFE168FDF7D0FE06460121A068FDF7E3
:10248000FDFEA168FDF7C8FE3146FDF76DFE494629
:10249000FDF7BCFEFEF7A0F806460F4601212068B6
:1024A000FDF7ECFEE168FDF7B7FE80465146606837
:1024B000FDF7B2FEA168FDF7AFFE4146FDF7A6FEAF
:1024C000FEF78AF832463B4601F008F95A46054BBA
:1024D000FDF787FFFEF793F82860BDE8F09F000046
:1024E0000C00002066A64C4010B501F0F3F904483A
:1024F0004FF07E510160002141608160C16010BDDC
:102500000C0000200D4808B5816941F0200181616F
:10251000816901F020010091816941F0040181612C
:10252000816901F004010091816941F00801816134
:10253000806900F00800009008BD00000010024013
:102540000D4810B50B4901600C49416000214FF462
:1025500080428160C0E9031241618161C161016211
:10256000FEF738FB002803D0BDE81040FEF73BBA69
:1025700010BD00000054004058010020A08601005A
:102580000C4810B50A4901604FF4E1314160002167
:1025900081600C22C160C0E904128161C161FFF752
:1025A000CBF8002803D0BDE81040FEF71CBA10BDE0
:1025B00000440040AC010020FEE770470907090E07
:1025C000002806DA00F00F0000F1E02080F8141D6A
:1025D000704700F1E02080F80014704770477047A2
:1025E000FEF77EBD30B58FB028216846FDF7B1FDFE
:1025F00014210AA8FDF7ADFD01210804CDE9001062
:102600000024029402250491CDE907504FF4E01014
:1026100009906846FEF7FAFE0F20CDE90A05680228
:10262000CDE90C4002210AA80E94FEF7E3FD0FB09D
:1026300030BD00000D48016841F0010101604168B2
:102640000B4A1140416001680A4A1140016001686B
:1026500021F480210160416821F4FE0141604FF4C2
:102660001F0181600449C0030860704700100240E8
:102670000000FFF8FFFFF6FE08ED00E02DE9F04155
:10268000044600680169E26821F440511143016188
:102690002169A0680843616908432168CA6841F25A
:1026A0000C639A430243CA6020684169A26921F41D
:1026B0004071114341614C492068642532268842AB
:1026C0003CD1FEF75DFE00EBC00101EB001061683C
:1026D0008900B0FBF1F7FEF753FE00EBC00101EB00
:1026E00000106168B0468900B0FBF1F0B0FBF5F076
:1026F0006FF01801484307EB800106EB0110B0FBB7
:10270000F5F000F0F006FEF73BFE00EBC00101EB38
:10271000001061688900B0FBF1F0B0FBF5F006EB4A
:102720000016FEF72DFE00EBC00101EB0010616802
:102730008900B0FBF1F7FEF723FE3BE0FEF710FE49
:1027400000EBC00101EB001061688900B0FBF1F7FC
:10275000FEF706FE00EBC00101EB00106168B04619
:102760008900B0FBF1F0B0FBF5F06FF018014843C1
:1027700007EB800106EB0110B0FBF5F000F0F0066E
:10278000FEF7EEFD00EBC00101EB0010616889006F
:10279000B0FBF1F0B0FBF5F006EB0016FEF7E0FD44
:1027A00000EBC00101EB001061688900B0FBF1F79C
:1027B000FEF7D6FD00EBC00101EB00106168890057
:1027C000B0FBF1F0B0FBF5F06FF01801484307EBF8
:1027D000800108EB0110B0FBF5F0216800F00F005C
:1027E00030448860BDE8F081003801402DE9F041B7
:1027F000984617460E460446069D1DE0681C1BD0F1
:102800002DB1FEF7E1F9A0EB0800A84214D9206829
:10281000C16821F4D071C1602068416921F00101D3
:102820004161202084F8390084F83A00002084F8BF
:1028300038000320BDE8F0812068006836EA000017
:1028400004D00020B842D9D00020F3E70120F9E7F6
:10285000FEE700000FB4054B10B503A9044A029827
:1028600000F05CF910BC5DF814FB00005D38000856
:10287000A0000020490050EAC12018BF04204A0DE2
:1028800018BF40F0010040F2FF72B2EB515F08BF89
:1028900040F00200012808BF052070472DE9F041F3
:1028A0004F1E00EBC7010446D1E9000115461E4644
:1028B00037F006020DD02A463346FDF792FD7F1E03
:1028C00004EBC703D3E90023FDF7E4FC37F006026D
:1028D000F1D1022F25D0042F13D0062F18BFBDE849
:1028E000F0812A463346FDF77CFDD4E90A23FDF743
:1028F000D1FC2A463346FDF774FDD4E90823FDF7E1
:10290000C9FC2A463346FDF76CFDD4E90623FDF7E2
:10291000C1FC2A463346FDF764FDD4E90423FDF7E4
:10292000B9FC2A463346FDF75CFDD4E90223FDF7E6
:10293000B1FC2A463346FDF754FDD4E90023BDE837
:10294000F041FDF7A7BC0122FDF771BFFDF7A2BC66
:102950000022134610461146FDF7B5BD024A00207D
:102960001107FDF764BF000001FDFFFF02E008C88A
:10297000121F08C1002AFAD170477047002001E0F9
:1029800001C1121F002AFBD17047000001490860F5
:1029900070470000A40000202DE9FF5F82B00021F5
:1029A000DDE90430020DDDF840B0034318D044F6F1
:1029B0001050A2F2FF3242431514119801281FD083
:1029C000A5EB0B00401C5FEA000A4FF000064E4FDB
:1029D000DFF83891B046504615D5CAF1000413E02F
:1029E000119801244AA3012801D16FEA0B01029832
:1029F000119AC0E90031C0E9024206B0BDE8F09F7B
:102A0000CBF10000DFE704460021404A491842EBC1
:102A10000450CDE9001012E0E00707D032463B46F3
:102A200040464946FDF7DDFC8046894632463B4636
:102A300010461946FDF7D5FC06460F466410002CDB
:102A4000EAD1DDE90401DDE90023BAF1000F06DA7D
:102A5000FDF7C7FC42464B46FDF7C3FC05E0FDF71A
:102A600032FD42464B46FDF72EFD04460E4600223F
:102A7000284BFDF75DFF03D84FF0FF30014607E01C
:102A80000022254B20463146FDF704FCFDF737FFB9
:102A9000102409E0002C0ADB0A220023FDF7E1FDE7
:102AA000039B30321A55641E50EA0102F2D1641CB5
:102AB000039AC4F111031444119A012A03D001228C
:102AC00008430DD10AE0084304D000204FF0110B59
:102AD000119072E7A3EB0B056D1E0DE05B4504DD65
:102AE0004FF0000205F1010504E003DA4FF00002A7
:102AF000A5F10105002AECD002981199C0E9023134
:102B0000C0E9004579E70000000014400000F03FF4
:102B1000300000000000F0430000E03F2DE9FF4FCF
:102B200095B09B468946064600250FE2252877D1B9
:102B300000242746F84A0121059400E0044316F8D2
:102B4000013F203B01FA03F01042F7D130782A28E8
:102B500011D06FF02F033078A0F13002092A16D877
:102B6000059A44F0020402EB820203EB4202104495
:102B7000761C0590EFE759F8042B0592002A03DA3A
:102B8000504244F40054059044F00204761C30781E
:102B90002E2816D116F8010F44F004042A280DD06F
:102BA0006FF02F023078A0F13003092B09D807EB22
:102BB000870302EB4303C718761CF3E759F8047B3D
:102BC000761C30786C280FD006DC4C2817D068288B
:102BD0000DD06A2814D104E0742810D07A280FD1BF
:102BE0000DE044F400140AE044F4801401E044F4DD
:102BF00040147278824202D104F58014761C761C4F
:102C0000307866280BD013DC582877D009DC0028F0
:102C100075D04528F6D04628F4D047281AD19DE132
:102C200018E0632835D0642879D0652812D195E161
:102C3000702873D008DC6728F1D069286FD06E281F
:102C40000DD06F2806D1B5E073282CD0752875D02B
:102C5000782874D05A46179990476D1C75E1C4F3D3
:102C60000250022809D003280DD0D9F800100428FA
:102C70000DD00D6009F1040967E1D9F80010EA17D9
:102C8000C1E90052F6E7D9F800100D80F2E70D70A7
:102C9000F0E719F8041B8DF8001000208DF80100F2
:102CA000EA46012003E059F804AB4FF0FF3061071A
:102CB0004FF0000102D40DE008F101018846B9424D
:102CC0000FDA8045F8DB1AF808100029F4D108E083
:102CD00008F1010188468142FADB1AF80810002940
:102CE000F6D105985B46A0EB080721463846179AAF
:102CF00000F094FA284400EB080507E04DE029E1D4
:102D00000DE01AF8010B5A4617999047B8F10108DF
:102D1000F7D25B4621463846179A13E142E00A2271
:102D20000092C4F302524FF0000A022A08D059F868
:102D300004CB032A4FEAEC710AD00DE029E02AE027
:102D400009F1070121F00702F2E802C1914609E00A
:102D50000FFA8CFC4FEAEC71042A03D14FFA8CFC79
:102D60004FEAEC71002907DA0A460021DCF1000C79
:102D700061EB02012D2202E0220504D52B228DF801
:102D80000420012203E0E20701D02022F7E7904669
:102D900059E00A2102E010220DE010214FF0000A54
:102DA00000910BE010224FF0000A44F004040827C1
:102DB000009203E008224FF0000A0092C4F302528E
:102DC000022A05D059F804CB0021032A08D009E0D3
:102DD00009F1070121F00702F2E802C1914605E07E
:102DE0001FFA8CFC042A01D10CF0FF0C4FF00008F4
:102DF000220728D5702806D0009B83F0100353EAE1
:102E00000A0305D00EE040228DF80420012208E0DC
:102E10005CEA010206D030228DF804208DF805000E
:102E200002229046009B83F0080353EA0A030AD16A
:102E30005CEA010201D1620705D530228DF8042039
:102E40004FF001087F1E582804D034A003900EA82C
:102E500002900DE036A0F9E753466046009AFDF770
:102E600000FC84460398825C0298401E0290027027
:102E70005CEA0100F0D1029806A9081A00F1200AC4
:102E8000600702D524F4803400E00127574502DDB5
:102E9000A7EB0A0000E0002000EB0A010090059873
:102EA0004144401A0590E00306D45B462146179A38
:102EB000059800F0B3F90544002706E001A85A463A
:102EC000C05D179990476D1C7F1C4745F6DBE003FA
:102ED0000CD55B462146179A059800F09FF90544EA
:102EE00004E030205A46179990476D1C0099481EFF
:102EF00000900029F5DC08E0029802995A46007813
:102F0000491C0291179990476D1CBAF10001AAF172
:102F1000010AF1DC65E1000009280100303132339B
:102F20003435363738396162636465660000000005
:102F300030313233343536373839414243444546EF
:102F40000000000000F058F90544761C3078002895
:102F50007FF4ECAD19B02846BDE8F08F620700D4CD
:102F6000062709F1070222F0070CFCE80223E146DC
:102F700003F000485FEA080C02D00FF2702C0DE05D
:102F80005FEA045C02D50FF2682C07E05FEAC47CBC
:102F900002D00FF2602C01E0AFF2700C4FF0FF385E
:102FA00023F00043CDF850C065280CD006DC45283E
:102FB00009D046281DD047283DD13DE0662818D0CD
:102FC00067287ED138E00021112F01DB112000E0BD
:102FD000781CCDE9000106A90EA8FFF7DDFCDDE9AC
:102FE0000F010E9A03910021009207F1010A04914A
:102FF0004DE04FF000400097CDE9011006A90EA862
:10300000FFF7CAFCDDE90F0203920E9B1199002223
:10301000DDF80CA00093049211B9791C00EB010AB1
:10302000B7EB0A0004D4C0F1FF3007F1010A0490A5
:10303000AAEB0700019044E0012F00DA01270021EC
:10304000112F01DD112000E03846CDE9000106A96D
:103050000EA8FFF7A1FCDDE90F010E9A03910021F4
:1030600004910092BA4621070CD40399514500DA25
:103070008A46BAF1010F05DD009AAAF10101515CFF
:10308000302908D0B84202DA10F1040F06DA012123
:10309000CDE9011015E0AAF10101E9E7002805DCFE
:1030A000049901440491AAEB000102E0411C51453E
:1030B00000DD8A460499401A401C01904FF0004000
:1030C0000290200704D40198504501DBCDF804801C
:1030D00000208DF84F0002980DF14F07B0F1004F1E
:1030E00025D02B200E9002984FF0020800280CDA11
:1030F000404202902D200E9007E00A210298FDF731
:103100009AFA3031029007F8011DB8F10001A8F1D8
:103110000108F2DC02980028EFD1791E0E980870A1
:10312000307800F0200040F0450007F8020D12A8AA
:10313000C01B00F107081498007800B1012000EBD3
:103140000A01019801EBE07105984144401A401EC4
:103150000590E00306D45B462146179A059800F0D7
:103160005DF805441498007818B15A4617999047AD
:103170006D1CE00324D55B462146179A059800F0A4
:103180004DF805441CE00498002807DBDDE9030145
:10319000884203DD0098405C179901E017993020C0
:1031A0005A469047049805F10105401C0490019887
:1031B000401E019004D12E205A46179990476D1C4D
:1031C000BAF10001AAF1010ADDDC05E017F8010BF4
:1031D0005A46179990476D1CB8F10001A8F10108F3
:1031E000F4DC5B462146179A0598ABE62D000000FB
:1031F0002B000000200000002DE9F04104460025CE
:103200001E461746880404D405E039462020B047FE
:103210006D1C641EF9D52846BDE8F0812DE9F0410A
:10322000044600251E469046C80301D5302700E01D
:103230002027880404D505E041463846B0476D1C78
:10324000641EF9D52846BDE8F08100002DE9F04D57
:103250008D4F21F0004A86B005460C46BA452ADB60
:10326000AAEB070028430AD08848824501DC1AD11E
:10327000CDB106B02846BDE8F04DFFF764BB844AE7
:10328000844B2846FDF7ADF807460E46824A834B2D
:1032900028462146FDF7A5F806B03A463346BDE874
:1032A000F04DFCF7F7BF0120FFF770FB06B0BDE85B
:1032B000F04DFFF74DBB7A48824542DABAF1795FAB
:1032C0000BDA2846FFF7D6FA042808BFFFF746FBBB
:1032D000284606B02146BDE8F08D2A460B4610462A
:1032E000FDF77FF8834602466E480E460B460621E0
:1032F0007844FFF7D3FA5A463346FDF772F8804612
:1033000069488A465A46334604217844FFF7C6FA8C
:103310005A463346FDF765F800223B46FCF7BAFFF4
:1033200002460B4640465146FDF7CDF82A46234655
:10333000FDF757F806B02A462346BDE8F04DFCF7E6
:10334000A9BF284624F0004100223D463B46FDF738
:1033500045F84FF0FF32FDF76AFA06460246534839
:103360000F460B4606217844FFF798FA32463B4653
:10337000FDF737F8CDE900014D4832463B460421C0
:103380007844FFF78BFA32463B46FDF72AF80022D5
:103390002B46FCF77FFF834602913046394600F00A
:1033A0000FFE804643480D46504517DCDDE900011D
:1033B0005A46029BFDF787F842462B46FDF711F867
:1033C00042462B46FCF766FF0122FDF730FA304AF1
:1033D000304BFDF700F8304A304B4CE04FF0000A1C
:1033E00052460B464046FCF755FFCDE903105246C6
:1033F0002B4610461946FCF7F4FF32463B46FCF7D5
:10340000EDFFDDE90332FDF75EF806460F46DDE924
:1034100000015A46029BFDF756F8834600910122AF
:1034200030463946FDF703FA194A1A4BFCF7D6FF26
:1034300006460F46012240462946FDF7F8F95A464E
:10344000009BFCF7CEFF32463B46FCF7C4FF064626
:103450000F46012250462946FDF7E9F90E4DDFF8E7
:1034600058802A464346FCF7B9FF32463B46FCF7F4
:10347000B5FF2A464346FCF7B1FF002CD8BF81F0C8
:10348000004106B0BDE8F08D0000F03F0000F07F85
:10349000075C143326A6913C182D4454FB21F93FB8
:1034A0000000E03F340D00004A0D0000BE0C00009B
:1034B000D40C00003333EF3FFB21E93F2DE9F84FF7
:1034C00004460D4621F0004000917349814211DC11
:1034D0007249884201DC06D12CB120462946BDE85C
:1034E000F84FFFF730BA6E48002DCCBF6D496E49DA
:1034F000BDE8F88F6D49814211DD6D498142D8BF29
:103500004FF0FF366DDD20462946FFF7B3F904285A
:1035100008BFFFF723FA20462946BDE8F88F654922
:10352000654F25F00045814233DD6449814219DD54
:10353000002632464FF0804320462946FCF7AAFE7B
:1035400080468A46012220462946FDF770F900226E
:103550003B46FCF740FF42465346FCF7B4FF0446A7
:103560000D463EE001260022BA463B46204629464B
:10357000FCF790FE80460F4600225346204629461F
:10358000FCF729FF42463B46FCF79DFF04460D46EB
:1035900027E04B4981421BDDDFF828A102260022EB
:1035A000534620462946FCF71CFF00223B46FCF709
:1035B00071FE80460F460022534620462946FCF7FE
:1035C0000AFF42463B46FCF77EFF04460D4608E0F4
:1035D000032622462B4600203B49FCF774FF044695
:1035E0000D4622462B4610461946FCF7FAFE8B463E
:1035F000824602460B46FCF7F4FE07460246334875
:1036000088460B4606217844FFF748F952465B4648
:10361000FCF7E7FE82462E488B463A464346052194
:103620007844FFF73BF93A464346FCF7DAFE024698
:103630000B46002E504659460CDAFCF72BFE22466C
:103640002B46FCF7CEFE01B022462B46BDE8F04FDC
:10365000FCF7C4BEFCF71EFE22462B46FCF7C1FE5B
:103660001C4A7A4402EBC603D3E90023FCF7B3FEFD
:1036700022462B46FCF7AFFE174A7A4402EBC603FC
:10368000D3E90023FCF7AAFE009A002AB8BF81F014
:103690000041BDE8F88F0000000010440000F07FFA
:1036A000182D4454FB21F93FFB21F9BF0000DC3FFA
:1036B0000000203E0000F33F0000F03F0000E63F26
:1036C000008003400000F83F0000F0BFD60A000071
:1036D000940A0000320A0000FA0900002DE9F04DBA
:1036E0009446CCF1000423F000464CEA0404524F07
:1036F00046EAD4749A46884621F00042BC4206D875
:10370000454240EA050442EAD474BC4204D9BDE80B
:10371000F04D6246FFF71AB9AAF14055A5F17F6551
:1037200055EA0C040BD0022404EAAA74434DDFF8D6
:1037300010E144EAD87452EA000B04D00CE0BDE872
:10374000F04DFFF7BBBE002C14BF012CBDE8F08D7F
:10375000022C30D0032C32D056EA0C0B0AD0BE42D9
:1037600020D1BA4209D126F0804622F08042334669
:10377000114617E000291ADB25E0DFF8C8B0FB444A
:10378000002C04BFDBE90001BDE8F08D012C02BF75
:10379000DBE9000181F00041BDE8F08D022C0AD088
:1037A000032C0CD0BA4212D1B8F1000F0BDA234827
:1037B0002549BDE8F08D28462449BDE8F08D28460E
:1037C0007146BDE8F08D1D482149BDE8F08D921B82
:1037D00012153C2AC4BF19481D490EDCBAF1000F6E
:1037E000BEBF12F13C0F0020014606DB6246FCF72B
:1037F0006AFE21F00041FFF761FE002C08BFBDE822
:10380000F08D012C04BF81F00041BDE8F08D114A1C
:10381000114B022C07D0FCF7DEFD2A46BDE8F04D27
:103820000A4BFCF7D8BDFCF7D6FD2A46BDE8F04DA3
:10383000064BFCF7D3BD00000000F07F182D445468
:10384000FB2109C08E090000FB21F9BFFB210940C3
:10385000FB21F93F075C143326A6A13C13B54FF6B4
:10386000FF73012269460248FDF7D0FF00981CBD96
:10387000AC0100200A4B30B41B78032B0ED000287B
:103880000CD000290AD0002A08D0054C03EB4303D2
:10389000241D04EBC3031B6930BC184730BC7047C0
:1038A000240000200A4B30B41B78032B0ED00028D4
:1038B0000CD000290AD0002A08D0054C03EB4303A2
:1038C000241D04EBC303DB6830BC184730BC7047D1
:1038D0002400002070B517A0FEF7BCFF0A20FDF7FA
:1038E00083F81C4E0024351F04EB440006EBC00097
:1038F000406850B1804740B116482C70483050F8AD
:10390000241015A0FEF7A6FF03E0641CE4B2032C0C
:10391000EAD32878032807D000EB400006EBC0006C
:103920008068BDE870400047BDE870400CA0FEF71D
:1039300091BF00000D0A53656E736F72207261773C
:103940002064617461205B76302E395D2E200D0A73
:1039500000000000280000200D0A25730D0A000059
:103960000D0A696E7673656E7365206D6F74696F8D
:103970006E2073656E736F722068617665206E6F5E
:103980007420636F6E6E6563742E200D0A00000054
:103990000A4B30B41B78032B0ED000280CD0002922
:1039A0000AD0002A08D0054C03EB4303241D04EB86
:1039B000C3035B6930BC184730BC7047240000204B
:1039C00010B504464FF0FF31FCF758FC0849A1EB55
:1039D00064042146FCF720FC2146FCF71DFC4FF057
:1039E0007F51FCF716FC2146BDE81040FCF714BCE3
:1039F000DF59375F2DE9F04786B0814600200090FF
:103A00000190029003900490924688462E20FCF785
:103A1000BBFF60F307042D20FCF7B6FF60F30F2413
:103A2000ADF800403020FCF7AFFF60F307042F2013
:103A3000FCF7AAFF60F30F24ADF802403220FCF738
:103A4000A3FF60F307043120FCF79EFF60F30F240F
:103A5000ADF804400F4D00246E4602AF04EBC400E5
:103A600005EB400007EB840336F91420811C00F0BD
:103A700013F8641CE4B2032CF0D30298A9F80000F8
:103A80000398A8F800000498AAF8000006B0BDE862
:103A9000F0870000DE00002030B504786500641C6B
:103AA00004704A53027802F0070202700020186086
:103AB00031F910401A68401C2244C0B21A6008282C
:103AC000F6D3D010186030BD10B500242046FCF7A6
:103AD0005BFFEA2800D10124204610BD2DE9F04704
:103AE00086B08046002089462A49009001900290C5
:103AF0000390049008889246401C08803420FCF70C
:103B000043FF60F307043320FCF73EFF60F30F240C
:103B1000ADF800403620FCF737FF60F3070435208E
:103B2000FCF732FF60F30F24ADF802403820FCF7B9
:103B30002BFF60F307043720FCF726FF60F30F2408
:103B4000ADF80440144D00246E4602AF04EBC400EF
:103B500005EB400007EB840336F91420811CFFF7C6
:103B60009BFF641CE4B2032CF0D30A480299801C2A
:103B70000288891AA8F8001042880399891AA9F8BE
:103B8000001080880499081AAAF8000006B0BDE861
:103B9000F087000002000020A8000020FEB50021F0
:103BA0007F20FCF709FF01210620FCF705FF0A2012
:103BB000FCF71AFF01210620FCF7FEFE20217F20E2
:103BC000FCF7FAFE07210020FCF7F6FE3521012064
:103BD000FCF7F2FE07211120FCF7EEFE3121142044
:103BE000FCF7EAFE00217F20FCF7E6FE6420FCF7EC
:103BF000FBFE0020ADF80000ADF80400ADF80800B1
:103C0000074606460546044602AA01A96846FFF78C
:103C100065FFBDF900000744BDF904000644BDF985
:103C2000080005440A20FCF7DFFE641CE4B2202CE7
:103C3000EAD30A4879116B460180711141806911FC
:103C40008180022200218C2000F06EF803B0042253
:103C5000BDE8F04031210C2000F0AFB80400002096
:103C60002DE9F0478CB0804614240020079092463E
:103C7000894608900090019002900A20FCF7B4FE5B
:103C800009AB012210218C2000F04EF89DF8240091
:103C9000C00713D0B4B109AB062211218C2000F06B
:103CA00043F8BDF82400ADF81C00BDF82600ADF8BF
:103CB0001E00BDF82800ADF8200006E0641E14F0D8
:103CC000FF04DAD112A0FEF7C5FD164D002407AEA1
:103CD0006F4600BF04EBC40005EB400007EB840314
:103CE00036F91420811CFFF7D7FE641CE4B2032CC4
:103CF000F0D30098A8F8000001984042A9F800000D
:103D000002984042AAF800000CB0BDE8F08700001D
:103D10000D0A204D616720697320627573737920E5
:103D20000D0A0000140100202DE9F0410F46044661
:103D30001E46154630217F20FCF73EFE214603201B
:103D4000FCF73AFE39460420FCF736FE45F08001C8
:103D50000520FCF731FE00217F20FCF72DFE03201B
:103D6000FCF712FE40F0200421460320FCF724FE5D
:103D70000520FCF739FE24F020010320FCF71CFE8F
:103D8000002407E004F13B00C0B2FCF7FDFD305514
:103D9000641CE4B2AC42F5D330217F20FCF70CFE6A
:103DA0000520FCF7F1FD01460520FCF705FEBDE806
:103DB000F04100217F20FCF7FFBD70B50D460446A1
:103DC000164630217F20FCF7F7FD21460720FCF73F
:103DD000F3FD29460820FCF7EFFD31460A20FCF7E9
:103DE000EBFD81210920FCF7E7FD00217F20FCF796
:103DF000E3FD0320FCF7C8FD40F02004214603202A
:103E0000FCF7DAFD0520FCF7EFFD24F0200103208C
:103E1000FCF7D2FD30217F20FCF7CEFD0520FCF71A
:103E2000B3FD01460520FCF7C7FDBDE87040002149
:103E30007F20FCF7C1BD00001FB5FDF759F9FEF763
:103E4000D1FBFEF75FFBFEF77BFBFEF799FB23A0A0
:103E5000FEF700FDFEF748FBDFF8A490274C09F1C0
:103E6000060AA9F1060B2548FEF79EFA2548FEF73B
:103E7000F1FC2068FCF7B0FB074688466068FCF759
:103E8000ABFB05460E46A068FCF7A6FB8DE8E001FB
:103E900002460B461CA0FEF7DDFCB9F90430B9F967
:103EA0000220B9F9001024A0FEF7D4FCBAF90430BE
:103EB000BAF90220BAF900102BA0FEF7CBFCBBF92F
:103EC0000430BBF90220BBF9001032A0FEF7C2FC9F
:103ED0004FF4FA70FCF788FDC5E700000A49434D2E
:103EE0002D323039343820546573742050726F6726
:103EF00072616D202E2E2E0D0A0000004C01002054
:103F000082000020344100080D0A20526F6C6C3A88
:103F100020252E3266202020202050697463683AC4
:103F200020252E326620202020205961773A202536
:103F30002E3266200D0A00000D0A20416363656C75
:103F400065726174696F6E3A20583A2025642020AA
:103F5000202020593A20256420202020205A3A2071
:103F60002564200D0A0000000D0A204779726F7346
:103F7000636F70653A20583A202564202020202065
:103F8000593A20256420202020205A3A20256420F8
:103F90000D0A00000D0A204D61676E657469633A71
:103FA00020583A2025642020202020593A202564DA
:103FB00020202020205A3A202564200D0A000000ED
:103FC0002DE9F04106460F46FCF748FC041E0D465D
:103FD00018BF0120284320F00040C0F17F6000F1AD
:103FE000E040C00F0ED0301C18BF0120384320F035
:103FF0000040C0F17F6000F1E040C00F04BF01202D
:10400000FEF7C4FC20462946BDE8F0810000000010
:104010000000000001020304060708090000000078
:104020000102030400000000555555555555C53F84
:104030007D6FEB0312D6D4BF5544880E55C1C93FDE
:104040003B8F68B52882A4BF88B20175E0EF493F75
:1040500009F7FD0DE13D023F4B2D8A1C273A03C0B5
:10406000C88A599CE52A004059018D1B6C06E6BFA1
:1040700082922EB1C5B8B33F4FBB610567ACDD3F3F
:10408000182D4454FB21E93F9BF681D20B73EF3F7F
:10409000182D4454FB21F93FE2652F227F2B7A3CF7
:1040A000075C143326A6813CBDCBF07A8807703CB0
:1040B000075C143326A6913CC4EB98999999C9BF23
:1040C000711623FEC671BCBF6D9A74AFF2B0B3BF58
:1040D0009AFDDE522DDEADBF2F6C6A2C44B4A2BF18
:1040E0000D5555555555D53FFF8300922449C23F84
:1040F0006E204CC5CD45B73F513DD0A0660DB13FB8
:10410000EB0D76244B7BA93F11DA22E33AAD903FC9
:1041100000000000000000004D6F74696F6E207396
:104120006572736F722069732049434D2D323039A7
:10413000343800000D0A202F2D2D2D2D2D2D2D2D45
:104140002D2D2D2D2D2D2D2D2D2D2D2D2D2D2D2D9F
:104150002D2D2D2D2D2D2D2D2D2D2D2D2D2D2D2D8F
:104160002D2D2D2D2D2D2D2D2D2D2D2D2D2D2D2D7F
:104170002D2D2D2D2D2F200D0A0000009C41000813
:1041800000000020A80000006C290008444200083C
:10419000A8000020480500007C290008D00000008D
:1041A000000000000000000000000000000000000F
:1041B00000000000000000000000000000000000FF
:1041C0000300000002000000C93A00089D3B0008FF
:1041D000DD3A0008F5390008613C000800000000E5
:1041E00000000000000000000000000000000000CF
:1041F00000000000000000000000000000000000BF
:10420000000000000000000000000000184100084D
:10421000000000000000000000000000000000009E
:10422000000000000000000000000000010000008D
:10423000100000000000000000A24A04000000007E
:04424000000000007A
:04000005080000ED02
:00000001FF
